:100000000C942A000C9447000C9447000C94470071
:100010000C9447000C9447000C9447000C94470044
:100020000C9447000C9447000C947F030C944700F9
:100030000C9447000C9447000C9447000C94470024
:100040000C9447000C9447000C9447000C94470014
:100050000C94470011241FBECFE5D8E0DEBFCDBF12
:1000600010E0A0E6B0E0E4EEFAE102C005900D92E7
:10007000A63EB107D9F711E0A6EEB0E001C01D928F
:10008000A832B107E1F70E941D0B0C94700D0C947F
:100090000000DF93CF9300D0CDB7DEB789836A83AA
:1000A0008981883060F58A818823A1F0ABE3B0E0D4
:1000B000EBE3F0E08081482F8981282F30E081E058
:1000C00090E0022E02C0880F991F0A94E2F7842B59
:1000D0008C93BCC0ABE3B0E0EBE3F0E08081482F51
:1000E0008981282F30E081E090E0022E02C0880F45
:1000F000991F0A94E2F7809584238C93A7C0898185
:100100008830A8F18981803190F58A818823B9F0FF
:10011000A8E3B0E0E8E3F0E08081482F8981882FF0
:1001200090E09C012850304081E090E0022E02C017
:10013000880F991F0A94E2F7842B8C9387C0A8E359
:10014000B0E0E8E3F0E08081482F8981882F90E0DB
:100150009C012850304081E090E0022E02C0880FC0
:10016000991F0A94E2F7809584238C936FC089814C
:100170008031A8F18981883190F58A818823B9F08E
:10018000A5E3B0E0E5E3F0E08081482F8981882F86
:1001900090E09C012051304081E090E0022E02C0AE
:1001A000880F991F0A94E2F7842B8C934FC0A5E324
:1001B000B0E0E5E3F0E08081482F8981882F90E06E
:1001C0009C012051304081E090E0022E02C0880F57
:1001D000991F0A94E2F7809584238C9337C0898114
:1001E0008831A0F18981803288F58A818823B9F02D
:1001F000A2E3B0E0E2E3F0E08081482F8981882F1C
:1002000090E09C012851304081E090E0022E02C035
:10021000880F991F0A94E2F7842B8C9317C0A2E3EE
:10022000B0E0E2E3F0E08081482F8981882F90E000
:100230009C012851304081E090E0022E02C0880FDE
:10024000991F0A94E2F7809584238C930F900F9066
:10025000CF91DF910895DF93CF9300D00F92CDB768
:10026000DEB7898389818830F0F4E9E3F0E08081AA
:10027000482F50E08981282F30E081E090E002C0D3
:10028000880F991F2A95E2F79A012823392389813B
:10029000882F90E0A90102C0559547958A95E2F70D
:1002A000CA018A8379C08981883028F189818031A7
:1002B00010F5E6E3F0E08081482F50E08981882F37
:1002C00090E09C012850304081E090E002C0880F0F
:1002D000991F2A95E2F79A01282339238981882FCB
:1002E00090E00897A90102C0559547958A95E2F7D5
:1002F000CA018A8351C08981803128F1898188317E
:1003000010F5E3E3F0E08081482F50E08981882FE9
:1003100090E09C012051304081E090E002C0880FC5
:10032000991F2A95E2F79A01282339238981882F7A
:1003300090E04097A90102C0559547958A95E2F74C
:10034000CA018A8329C08981883128F18981803254
:1003500010F5E0E3F0E08081482F50E08981882F9C
:1003600090E09C012052304081E090E002C0880F74
:10037000991F2A95E2F79A01282339238981882F2A
:1003800090E08097A90102C0559547958A95E2F7BC
:10039000CA018A8301C002C05A815B838B810F909E
:1003A0000F900F90CF91DF910895DF93CF9300D0FE
:1003B000CDB7DEB789836A838981883060F58A8109
:1003C0008823A1F0AAE3B0E0EAE3F0E08081482FBF
:1003D0008981282F30E081E090E0022E02C0880F52
:1003E000991F0A94E2F7842B8C93BCC0AAE3B0E077
:1003F000EAE3F0E08081482F8981282F30E081E016
:1004000090E0022E02C0880F991F0A94E2F78095AF
:1004100084238C93A7C089818830A8F18981803199
:1004200090F58A818823B9F0A7E3B0E0E7E3F0E034
:100430008081482F8981882F90E09C01285030408E
:1004400081E090E0022E02C0880F991F0A94E2F723
:10045000842B8C9387C0A7E3B0E0E7E3F0E08081D2
:10046000482F8981882F90E09C012850304081E0FE
:1004700090E0022E02C0880F991F0A94E2F780953F
:1004800084238C936FC089818031A8F18981883160
:1004900090F58A818823B9F0A4E3B0E0E4E3F0E0CA
:1004A0008081482F8981882F90E09C012051304025
:1004B00081E090E0022E02C0880F991F0A94E2F7B3
:1004C000842B8C934FC0A4E3B0E0E4E3F0E08081A0
:1004D000482F8981882F90E09C012051304081E095
:1004E00090E0022E02C0880F991F0A94E2F78095CF
:1004F00084238C9337C089818831A0F1898180322F
:1005000088F58A818823B9F0A4E3B0E0E4E3F0E061
:100510008081482F8981882F90E09C0120513040B4
:1005200081E090E0022E02C0880F991F0A94E2F742
:10053000842B8C9317C0A4E3B0E0E4E3F0E0808167
:10054000482F8981882F90E09C012051304081E024
:1005500090E0022E02C0880F991F0A94E2F780955E
:1005600084238C930F900F90CF91DF910895DF93A8
:10057000CF9300D000D0CDB7DEB79A838983E2E570
:10058000F0E0108289819A819C838B838B819C818E
:100590008130910531F08B819C818230910531F061
:1005A00009C0ECE5F0E08DE7808304C0ECE5F0E005
:1005B0008AEF8083A3E5B0E0E3E5F0E08081806826
:1005C0008C93A3E5B0E0E3E5F0E0808188608C9354
:1005D000A3E5B0E0E3E5F0E0808181608C93A3E5E2
:1005E000B0E0E3E5F0E0808182608C930F900F90A3
:1005F0000F900F90CF91DF910895DF93CF93CDB7F8
:10060000DEB7AFE5B0E0EFE5F0E0808180688C9385
:10061000A9E5B0E0E9E5F0E0808182608C93CF91BC
:10062000DF910895DF93CF93CDB7DEB728970FB64C
:10063000F894DEBF0FBECDBF6D837E838F83988716
:10064000E2E5F0E0108281E090E00E94B7021982BA
:100650001A821B821C821BC0E8E5F0E08081882F93
:1006600090E0827090700097B9F3A8E5B0E0E8E5FB
:10067000F0E0808182608C9389819A81AB81BC811A
:100680000196A11DB11D89839A83AB83BC838D81A3
:100690009E81AF81B8859C01AD01569547953795F0
:1006A000279589819A81AB81BC8182179307A40722
:1006B000B50790F228960FB6F894DEBF0FBECDBFF7
:1006C000CF91DF910895DF93CF93CDB7DEB7E3E508
:1006D000F0E01082CF91DF910895DF93CF9300D0A7
:1006E000CDB7DEB79A83898389819A819093E70099
:1006F0008093E6000F900F90CF91DF9108951F92A5
:100700000F920FB60F9211242F933F934F935F9345
:100710006F937F938F939F93AF93BF93EF93FF93C9
:10072000DF93CF93CDB7DEB78091E6009091E700DD
:10073000009729F0E091E600F091E7000995CF914C
:10074000DF91FF91EF91BF91AF919F918F917F9139
:100750006F915F914F913F912F910F900FBE0F902E
:100760001F901895DF93CF93CDB7DEB7E4E4F0E0A8
:100770001082E3E4F0E08AEF8083E5E4F0E08BE0D0
:100780008083CF91DF910895DF93CF93CDB7DEB70C
:1007900028970FB6F894DEBF0FBECDBF6D837E8362
:1007A0008F839887E4E4F0E010820E94B2031982FC
:1007B0001A821B821C8217C0E8E5F0E08081882342
:1007C000DCF7A8E5B0E0E8E5F0E0808180688C9394
:1007D00089819A81AB81BC810196A11DB11D89835C
:1007E0009A83AB83BC8329813A814B815C818D8163
:1007F0009E81AF81B885281739074A075B07E0F269
:1008000028960FB6F894DEBF0FBECDBFCF91DF9113
:100810000895DF93CF9300D0CDB7DEB78091E80085
:10082000282F30E03A83298389819A81813091058C
:1008300011F129813A812230310509F4D1C0898131
:100840009A81009709F0EFC08091DC00813009F0B7
:10085000EAC08EE890E00E94160982E061E00E9402
:10086000E8088FE990E00E9416091092DC0081E010
:100870008093E800D8C00E946507893049F48091D0
:10088000DC00882329F40E94580981E08093DC0071
:100890008091EB008630E8F48091DD008130C9F46E
:1008A0008091DC008130A9F48091DA00813089F4F4
:1008B0000E9458098091EB00882F90E0880F991FC3
:1008C000FC01E053FF4F808191810E941609109234
:1008D000DD008091EB00863008F0A5C08091DD003E
:1008E000882309F0A0C00E9465078093EC008091E6
:1008F000EC008130A9F58091EB00882F90E0FC019D
:10090000E052FF4F80818130C1F40E9458098DEA86
:1009100090E00E9416098091E9008F5F8093E900C2
:100920008091EB008F5F8093EB001092EC0081E0F0
:100930008093DD001092DA004BC00E94580988EBCA
:1009400090E00E9416098091EB008F5F8093EB008E
:100950001092EC0081E08093DD001092DA0038C044
:100960008091EC008330A1F58091EB00882F90E01E
:10097000FC01E052FF4F80818823C1F40E94580996
:100980008DEA90E00E9416098091E9008F5F8093C4
:10099000E9008091EB008F5F8093EB001092EC00F8
:1009A00081E08093DD001092DA0012C00E945809A5
:1009B00088EB90E00E9416098091EB008F5F809396
:1009C000EB001092EC0081E08093DD001092DA00E1
:1009D0008091EB00853039F582E08093E80023C0F8
:1009E0008091DB008130F9F40E94580981EC90E09D
:1009F0000E9416091092DA0080E06FE00E94E80879
:100A00008091E900882F90E0A0E0B0E0BC01CD012A
:100A10000E947F0A81E08093DC001092EB0010922C
:100A2000DB001092E8000F900F90CF91DF910895B6
:100A3000DF93CF93CDB7DEB781E08093DA00CF911B
:100A4000DF910895DF93CF93CDB7DEB781E0809338
:100A5000DB0081E08093DC00CF91DF910895DF938C
:100A6000CF9300D0CDB7DEB71A821982A4E3B0E0ED
:100A7000E4E3F0E080818C618C93A5E3B0E0E5E3F2
:100A8000F0E080818C618C93A4E3B0E0E4E3F0E0DB
:100A900080818F718C93A5E3B0E0E5E3F0E0808185
:100AA000806E8C93198244C01A823CC08981282FA1
:100AB00030E08A81482F50E0C901880F991F820FCA
:100AC000931F840F951F880F991FFC01E351FF4F5F
:100AD00081E080838981282F30E08A81482F50E08F
:100AE000C901880F991F820F931F840F951F880FCC
:100AF000991FFC01E251FF4F81E080838981282FFB
:100B000030E08A81482F50E0C901880F991F820F79
:100B1000931F840F951FFC01E150FF4F10828A81C3
:100B20008F5F8A838A81833008F289818F5F89830E
:100B30008981833008F4B8CF0F900F90CF91DF9167
:100B40000895DF93CF9300D000D0CDB7DEB71A82DF
:100B500019821982AFC1A5E3B0E0E5E3F0E080813E
:100B60008C618C93A5E3B0E0E5E3F0E08081482F51
:100B70008981882F90E09C012E5F3F4F81E090E0BB
:100B8000022E02C0880F991F0A94E2F780958423F1
:100B90008C931A8288C18981682F70E08A81A82F7E
:100BA000B0E08981282F30E08A81482F50E0C901C8
:100BB000880F991F820F931F840F951F880F991F0D
:100BC000FC01E251FF4F2081CB01880F991F860F56
:100BD000971F8A0F9B1F880F991FFC01E351FF4F3E
:100BE00020838981682F70E08A81A82FB0E0E3E339
:100BF000F0E08081482F50E08A81882F90E09C01AE
:100C00002B5F3F4F81E090E002C0880F991F2A952B
:100C1000E2F79A01282339238A81882F90E00596EC
:100C2000A90102C0559547958A95E2F7CA01282F78
:100C3000CB01880F991F860F971F8A0F9B1F880F64
:100C4000991FFC01E251FF4F20838981282F30E05A
:100C50008A81482F50E0C901880F991F820F931F86
:100C6000840F951FFC01E150FF4F8081282F30E059
:100C70003C832B834B815C814130510509F457C083
:100C80008B819C818230910534F42B813C8121152C
:100C9000310571F005C14B815C814230510509F489
:100CA00085C08B819C818330910509F4BEC0F8C05A
:100CB0008981282F30E08A81482F50E0C901880FB0
:100CC000991F820F931F840F951F880F991FFC0196
:100CD000E351FF4F8081882309F0E2C08981282FEA
:100CE00030E08A81482F50E0C901880F991F820F98
:100CF000931F840F951F880F991FFC01E251FF4F2E
:100D00008081882309F0CCC08981282F30E08A8136
:100D1000482F50E0C901880F991F820F931F840F3D
:100D2000951FFC01E150FF4F81E08083B9C08981AC
:100D3000282F30E08A81482F50E0C901880F991F81
:100D4000820F931F840F951F880F991FFC01E35199
:100D5000FF4F8081882309F0A3C08981282F30E0CC
:100D60008A81482F50E0C901880F991F820F931F75
:100D7000840F951F880F991FFC01E251FF4F80815E
:100D8000882309F08DC08981282F30E08A81482F7F
:100D900050E0C901880F991F820F931F840F951F80
:100DA000FC01E150FF4F82E080837AC08981282FC7
:100DB00030E08A81482F50E0C901880F991F820FC7
:100DC000931F840F951F880F991FFC01E351FF4F5C
:100DD0008081813009F064C08981282F30E08A81C8
:100DE000482F50E0C901880F991F820F931F840F6D
:100DF000951F880F991FFC01E251FF4F80818130C0
:100E000009F04EC08981282F30E08A81482F50E0B8
:100E1000C901880F991F820F931F840F951FFC0132
:100E2000E150FF4F83E080833BC08981282F30E071
:100E30008A81482F50E0C901880F991F820F931FA4
:100E4000840F951F880F991FFC01E351FF4F80818C
:100E5000813031F58981282F30E08A81482F50E098
:100E6000C901880F991F820F931F840F951F880F48
:100E7000991FFC01E251FF4F8081813089F4898103
:100E8000282F30E08A81482F50E0C901880F991F30
:100E9000820F931F840F951FFC01E150FF4F1082BA
:100EA0008A818F5F8A838A81833008F474CE898136
:100EB0008F5F89838981833008F44DCE0F900F9026
:100EC0000F900F90CF91DF910895DF93CF9300D0D3
:100ED0000F92CDB7DEB71B821A8219821A8249C0DF
:100EE000A5E3B0E0E5E3F0E080818C618C93A5E3BD
:100EF000B0E0E5E3F0E08081482F8A81882F90E020
:100F00009C012E5F3F4F81E090E0022E02C0880FCF
:100F1000991F0A94E2F7809584238C931B8223C047
:100F20008A81282F30E08B81482F50E0C901880F3B
:100F3000991F820F931F840F951FFC01E150FF4FF3
:100F40008081833069F48A81282F30E0C901880FBD
:100F5000991F820F931F982F8B81890F8F5F898331
:100F60008B818F5F8B838B818330D0F28A818F5FFF
:100F70008A838A81833008F4B3CF89810F900F90E0
:100F80000F90CF91DF910895DF93CF93CDB7DEB768
:100F9000EAE3F0E08FEF808361E070E080E090E0D2
:100FA0000E94C40383E30E940E0861E070E080E0C9
:100FB00090E00E94C40382E30E940E0861E070E0AA
:100FC00080E090E00E94C40388E20E940E0882E064
:100FD0000E940E0861E070E080E090E00E94C4038F
:100FE0008CE00E940E0861E070E080E090E00E94DA
:100FF000C40386E00E940E0861E070E080E090E0AB
:101000000E94C40381E00E940E0861E070E080E06D
:1010100090E00E94C403CF91DF910895DF93CF93B6
:101020000F92CDB7DEB7898381E060E00E9449006E
:1010300082E060E00E94490083E061E00E94490094
:1010400062E070E080E090E00E94C403ABE3B0E0B7
:10105000EBE3F0E08081982F9F708981807F892B5E
:101060008C9361E070E080E090E00E94C40383E034
:1010700060E00E94490061E070E080E090E00E9442
:10108000C40383E061E00E94490061E070E080E019
:1010900090E00E94C403ABE3B0E0EBE3F0E08081BA
:1010A000282F2F708981882F90E082959295907FCC
:1010B0009827807F9827822B8C9361E070E080E0F6
:1010C00090E00E94C40383E060E00E94490061E078
:1010D00070E080E090E00E94C40383E061E00E9441
:1010E000490061E070E080E090E00E94C4030F904E
:1010F000CF91DF910895DF93CF930F92CDB7DEB7F5
:10110000898381E061E00E94490082E060E00E9402
:10111000490083E061E00E94490061E070E080E006
:1011200090E00E94C403ABE3B0E0EBE3F0E0808129
:10113000982F9F708981807F892B8C9361E070E06C
:1011400080E090E00E94C40383E060E00E944900D8
:1011500061E070E080E090E00E94C40383E061E021
:101160000E94490061E070E080E090E00E94C403CA
:10117000ABE3B0E0EBE3F0E08081282F2F708981B2
:10118000882F90E082959295907F9827807F98276E
:10119000822B8C9361E070E080E090E00E94C403B9
:1011A00083E060E00E94490061E070E080E090E050
:1011B0000E94C40383E061E00E94490061E070E0A6
:1011C00080E090E00E94C4030F90CF91DF910895DA
:1011D000DF93CF9300D000D0CDB7DEB789836A8389
:1011E0008A818823E1F08A818131C8F48981282F9E
:1011F00030E03C832B838B819C818130910531F0E1
:101200002B813C812230310531F009C08A8181581F
:101210000E940E0804C08A8181540E940E080F901B
:101220000F900F900F90CF91DF910895DF93CF93A0
:1012300000D00F92CDB7DEB79B838A8319820EC090
:101240008981282F30E08A819B81FC01E20FF31F06
:1012500080810E947B0889818F5F89838981282F03
:1012600030E08A819B81FC01E20FF31F808188239B
:1012700039F70F900F900F90CF91DF910895DF9382
:10128000CF9300D000D0CDB7DEB79A8389836B832C
:101290004C838B816C810E94E80889819A810E942D
:1012A00016090F900F900F900F90CF91DF91089536
:1012B000DF93CF93CDB7DEB781E00E940E0864E6DE
:1012C00070E080E090E00E94C40382E00E940E087B
:1012D000CF91DF910895DF93CF9300D000D000D05D
:1012E000CDB7DEB79D838C836E831B828E81815048
:1012F0008A832CC08B81282F30E08C819D81FC015A
:10130000E20FF31F808189838B81282F30E08C814D
:101310009D81DC01A20FB31F8A81282F30E08C81D0
:101320009D81FC01E20FF31F80818C938A81282F1D
:1013300030E08C819D81FC01E20FF31F8981808365
:101340008B818F5F8B838A8181508A839B818A8185
:10135000981780F226960FB6F894DEBF0FBECDBF69
:10136000CF91DF910895DF93CF93CDB7DEB72C9760
:101370000FB6F894DEBF0FBECDBF6C837D838E8326
:101380009F83598748872A871B821A828C819D8177
:10139000AE81BF810097A105B105D9F48B81282FBB
:1013A00030E088859985FC01E20FF31F80E380839C
:1013B0008B818F5F8B838B81282F30E08885998587
:1013C000FC01E20FF31F1082888599859C878B872B
:1013D0008BC08C819D81AE81BF81BB230CF059C035
:1013E0008A858A3009F055C081E08A838C819D818D
:1013F000AE81BF81B095A095909581959F4FAF4FDD
:10140000BF4F8C839D83AE83BF8343C08A85282FC3
:1014100030E040E050E08C819D81AE81BF81BC0115
:10142000CD010E94550DDC01CB01898389818A3071
:1014300078F08B81282F30E088859985FC01E20FB8
:10144000F31F8981895C80838B818F5F8B830EC0C2
:101450008B81282F30E088859985FC01E20FF31FEE
:101460008981805D80838B818F5F8B838A85282F24
:1014700030E040E050E08C819D81AE81BF81BC01B5
:10148000CD010E94550DDA01C9018C839D83AE8385
:10149000BF838C819D81AE81BF810097A105B1057D
:1014A00009F0B4CF8A81882369F08B81282F30E03E
:1014B00088859985FC01E20FF31F8DE280838B8183
:1014C0008F5F8B838B81282F30E088859985FC0185
:1014D000E20FF31F1082888599856B810E946B094A
:1014E000888599859C878B878B859C852C960FB6E4
:1014F000F894DEBF0FBECDBFCF91DF910895EF927C
:10150000FF920F931F93DF93CF93CDB7DEB728974A
:101510000FB6F894DEBF0FBECDBF6D837E838F8381
:10152000988781E090E0A0E0B0E089839A83AB8364
:10153000BC838D819E81AF81B8850097A105B105DF
:10154000D1F580E30E947B0836C089819A81AB8106
:10155000BC812AE030E040E050E0BC01CD010E94B7
:10156000140D7B018C018D819E81AF81B8852AE0AD
:1015700030E040E050E0BC01CD010E94330DDC01C1
:10158000CB018E0D9F1DA01FB11F89839A83AB8352
:10159000BC838D819E81AF81B8852AE030E040E038
:1015A00050E0BC01CD010E94330DDA01C9018D83E9
:1015B0009E83AF83B8878D819E81AF81B885009768
:1015C000A105B10511F623C089819A81AB81BC8147
:1015D0002AE030E040E050E0BC01CD010E94330D34
:1015E000DC01CB01805D0E947B0889819A81AB81FF
:1015F000BC812AE030E040E050E0BC01CD010E9417
:10160000330DDA01C90189839A83AB83BC83898155
:101610009A81AB81BC8181309105A105B105A1F60C
:1016200028960FB6F894DEBF0FBECDBFCF91DF91E5
:101630001F910F91FF90EF900895DF93CF93CDB757
:10164000DEB70E94C4070E942F050E94B00B89E0FC
:1016500094E06AE070E042E00E944A0B88E195E085
:1016600060ED77E043E00E944A0B82E295E060ED96
:1016700077E044E00E944A0B81EA95E064E170E083
:1016800041E00E944A0B0E94550C80E090E0CF910F
:10169000DF910895DF93CF9300D000D00F92CDB7A4
:1016A000DEB79A8389837C836B834D838D81882FFA
:1016B00090E0FC01EC5DFE4F8081882309F048C07A
:1016C0008D81282F30E0C901880F991F820F931F49
:1016D000880F991FFC01E45FFE4F89819A819183F5
:1016E00080838D81282F30E0C901880F991F820FD8
:1016F000931F0196880F991FFC01E45FFE4F8B81B9
:101700009C81918380838D81282F30E0C901880FCF
:10171000991F820F931F880F991FFC01E05FFE4FF6
:101720008D8180838D81282F30E0C901880F991F1A
:10173000820F931F880F991FFC01EF5EFE4F1082EE
:101740008D81882F90E0FC01EC5DFE4F81E080836D
:101750000F900F900F900F900F90CF91DF91089501
:10176000DF93CF930F92CDB7DEB78091DE009091DB
:10177000DF000E94B7020E94FD0285EB9CE00E9400
:101780006D0319823EC08981282F30E0C901880F7E
:10179000991F820F931F880F991FFC01E45FFE4F72
:1017A000118210828981282F30E0C901880F991F8A
:1017B000820F931F0196880F991FFC01E45FFE4F73
:1017C000118210828981282F30E0C901880F991F6A
:1017D000820F931F880F991FFC01E05FFE4F10825C
:1017E0008981282F30E0C901880F991F820F931F2C
:1017F000880F991FFC01EF5EFE4F108289818F5F79
:1018000089838981843008F4BECF80E00F90CF9126
:10181000DF910895DF93CF9300D00F92CDB7DEB75D
:101820009B838A83198237C08981282F30E0C901C0
:10183000880F991F820F931F880F991FFC01E45F87
:10184000FE4F208131818A819B812817390701F55C
:101850008981282F30E0C901880F991F820F931FBB
:10186000880F991FFC01E45FFE4F1182108289816D
:10187000282F30E0C901880F991F820F931F01960E
:10188000880F991FFC01E45FFE4F1182108206C091
:1018900089818F5F89838981843030F280E00F9065
:1018A0000F900F90CF91DF910895DF93CF930F9218
:1018B000CDB7DEB7198254C08981282F30E0C90125
:1018C000880F991F820F931F880F991FFC01EF5EED
:1018D000FE4F8081882309F040C08981282F30E0A5
:1018E000C901880F991F820F931F880F991FFC0150
:1018F000E45FFE4F80819181009779F18981282FE3
:1019000030E0C901880F991F820F931F880F991F1C
:10191000FC01EF5EFE4F82E080838981282F30E05A
:10192000C901880F991F820F931F880F991FFC010F
:10193000E45FFE4F0190F081E02D09958981282F09
:1019400030E0C901880F991F820F931F880F991FDC
:10195000FC01EF5EFE4F81E0808389818F5F898388
:101960008981843008F4A8CFA5CFEF92FF920F931E
:101970001F93DF93CF930F92CDB7DEB7809108010D
:1019800090910901A0910A01B0910B010196A11D4E
:10199000B11D8093080190930901A0930A01B093AF
:1019A0000B01198236C0E0900801F0900901009106
:1019B0000A0110910B018981282F30E0C901880F9D
:1019C000991F820F931F0196880F991FFC01E45FF6
:1019D000FE4F808191819C0140E050E0C801B70139
:1019E0000E94330DDC01CB010097A105B10571F414
:1019F0008981282F30E0C901880F991F820F931F1A
:101A0000880F991FFC01EF5EFE4F108289818F5F66
:101A100089838981843038F20F90CF91DF911F91B3
:101A20000F91FF90EF900895629FD001739FF00196
:101A3000829FE00DF11D649FE00DF11D929FF00D5E
:101A4000839FF00D749FF00D659FF00D9927729F95
:101A5000B00DE11DF91F639FB00DE11DF91FBD0120
:101A6000CF0111240895A1E21A2EAA1BBB1BFD0170
:101A70000DC0AA1FBB1FEE1FFF1FA217B307E4076D
:101A8000F50720F0A21BB30BE40BF50B661F771FC5
:101A9000881F991F1A9469F76095709580959095A5
:101AA0009B01AC01BD01CF01089597FB092E0526CE
:101AB0000ED057FD04D0D7DF0AD0001C38F4509563
:101AC0004095309521953F4F4F4F5F4F0895F6F762
:101AD00090958095709561957F4F8F4F9F4F08959A
:041AE000F894FFCFA8
:101AE400352B35203D2031303F00342B34203D2030
:101AF40032303F00332B33203D2038383F00312B28
:101B0400313D313F00342A35203D20313F002077DC
:101B14006C636D20746F2067616D65203A290070D5
:101B240072657373203920737461727400434F5269
:101B340052454354203A290057524F4E47203A28E1
:101B440000596F757220524553554C54203D200066
:101B540060006A0074007E0085000101010101003B
:061B64000100000000007A
:00000001FF
