:100000000C942A000C9447000C9447000C94470071
:100010000C9447000C9447000C9447000C94470044
:100020000C9447000C9447000C94BB010C944700BF
:100030000C9447000C9447000C9447000C94470024
:100040000C9447000C9447000C9447000C94470014
:100050000C94470011241FBECFE5D8E0DEBFCDBF12
:1000600010E0A0E6B0E0EAE5F8E002C005900D92ED
:10007000A236B107D9F710E0A2E6B0E001C01D92A8
:10008000AD37B107E1F70E94E8020C942B040C9401
:100090000000382F8830C8F4662359F02BB381E074
:1000A00090E002C0880F991F3A95E2F7282B2BBBEE
:1000B00008952BB381E090E002C0880F991F3A9514
:1000C000E2F7809582238BBB089588508830F8F43E
:1000D000432F50E0662369F028B34850504081E038
:1000E00090E002C0880F991F4A95E2F7282B28BBA1
:1000F000089528B34850504081E090E002C0880F36
:10010000991F4A95E2F78095822388BB0895832F33
:1001100080518830F8F4432F50E0662369F025B30E
:100120004051504081E090E002C0880F991F4A95ED
:10013000E2F7282B25BB089525B34051504081E0BC
:1001400090E002C0880F991F4A95E2F780958223BC
:1001500085BB0895832F88518830F0F4432F50E0F9
:10016000662369F022B34851504081E090E002C01C
:10017000880F991F4A95E2F7282B22BB089522B3D6
:100180004851504081E090E002C0880F991F4A9585
:10019000E2F78095822382BB0895282F883010F4DF
:1001A00049B319C08850883028F446B330E028504D
:1001B000304011C0822F8051883028F443B330E0A2
:1001C0002051304008C0822F8851883070F440B3ED
:1001D00030E02052304081E090E002C0880F991F4B
:1001E0002A95E2F74823842F08950895382F883000
:1001F000C8F4662359F02AB381E090E002C0880F6A
:10020000991F3A95E2F7282B2ABB08952AB381E07B
:1002100090E002C0880F991F3A95E2F780958223FB
:100220008ABB089588508830F8F4432F50E0662345
:1002300069F027B34850504081E090E002C0880F39
:10024000991F4A95E2F7282B27BB089527B34850FA
:10025000504081E090E002C0880F991F4A95E2F774
:100260008095822387BB0895832F8051883090F436
:10027000432F50E06623B1F424B34051504081E055
:1002800090E002C0880F991F4A95E2F7809582237B
:1002900084BB0895832F88518830F0F4432F50E0B9
:1002A000662369F024B34051504081E090E002C0E1
:1002B000880F991F4A95E2F7282B24BB089524B391
:1002C0004051504081E090E002C0880F991F4A954C
:1002D000E2F78095822384BB089512BE8130910598
:1002E00019F0029729F402C08DE701C08AEF8CBF94
:1002F00083B7806883BF83B7886083BF83B781601B
:1003000083BF83B7826083BF08958FB780688FBF34
:1003100089B7826089BF0895EF92FF920F931F9370
:100320007B018C0112BE81E090E00E946D01169568
:100330000795F794E79420E030E040E050E00AC0F1
:1003400008B601FEFDCF88B7826088BF2F5F3F4FA0
:100350004F4F5F4F2E153F054007510788F31F9100
:100360000F91FF90EF90089513BE0895909363004E
:100370008093620008951F920F920FB60F9211247E
:100380002F933F934F935F936F937F938F939F939D
:10039000AF93BF93EF93FF93E0916200F0916300FE
:1003A000309709F00995FF91EF91BF91AF919F911F
:1003B0008F917F916F915F914F913F912F910F900E
:1003C0000FBE0F901F90189514BC8AEF83BD8BE071
:1003D00085BD0895EF92FF920F931F937B018C01CF
:1003E00014BC14BC8AEF83BD8BE085BD20E030E0F7
:1003F00040E050E00AC008B607FEFDCF88B780682D
:1004000088BF2F5F3F4F4F4F5F4F2E153F0540076F
:10041000510788F31F910F91FF90EF90089584B3D7
:100420008C6184BB85B38C6185BB84B38F7184BBC5
:1004300085B3806E85BB089540E050E061E070E0D8
:1004400085B38C6185BB25B34E5F5F4FCB01042E16
:1004500002C0880F991F0A94E2F7425050408095DD
:10046000822385BB20E030E0E22F83B390E02B5F56
:100470003F4F022E02C0959587950A94E2F72550CA
:10048000304080FD1EC060E070E02D5F3F4F81E096
:1004900090E002C0880F991F2A95E2F7892B11F48A
:1004A00061E070E083B390E086239723892BD1F736
:1004B0002E2F2F5FCA01880F991F840F951F280FB9
:1004C0000CC02F5F3F4F2330310571F64F5F5F4FF8
:1004D0004330510509F0B4CF20E0822F0895C7982A
:1004E000C69A8BBBC69880E197E20197F1F7C69A4E
:1004F00080E29EE40197F1F708950F931F938AB36A
:100500008FEF8ABBBE9ABF9A80E69AEE0197F1F709
:1005100088E30E946F0200ED17E0C8010197F1F730
:100520008CE00E946F02C8010197F1F781E00E9400
:100530006F0280E797E10197F1F786E00E946F0272
:1005400080EA9FE00197F1F71F910F910895C79AF4
:10055000C69A8BBBC69880E197E20197F1F7C69ADD
:1005600080E29EE40197F1F708951F93CF93DF9304
:10057000EC0110E003C00E94A7021F5FFE01E10F23
:10058000F11D80818823B9F7DF91CF911F910895E4
:10059000982F862F8150803170F4913019F092306D
:1005A00051F405C0862F81580E946F020895862F4E
:1005B00081540E946F0208958CE10E946F02089599
:1005C00088E10E946F02089581E00E946F02089501
:1005D0008CE061E00E94F6008CE061E00E9449003E
:1005E00068EE73E080E090E00E94EA018CE060E059
:1005F0000E94490068EE73E080E090E00E94EA010A
:10060000EBCF0F931F93CF93DF938C01242F30E018
:10061000E901C658DF4F88818823C1F4F901EE0F44
:10062000FF1FE20FF31FEE0FFF1FDF01A859BF4F9F
:1006300011961C930E93E659FF4F718360831496B5
:100640004C93149715961C9281E08883DF91CF918B
:100650001F910F9108959C0180916800909169000D
:100660008217930719F480E090E013C080916E0028
:1006700090916F008217930719F481E090E009C010
:1006800080917400909175008217930791F482E035
:1006900090E0FC01EE0FFF1FE80FF91FEE0FFF1FA8
:1006A000DF01A859BF4F1D921C92E659FF4F1182DE
:1006B000108280E00895FF920F931F93CF93DF93F2
:1006C00010E032E0F32E01E0812F90E0EC01CC0F3E
:1006D000DD1FC80FD91FCC0FDD1FC859DF4F8D811B
:1006E000882339F4E881F981309719F0FD82099562
:1006F0000D831F5F133040F310E0E6CF809164005C
:1007000090916500A0916600B09167000196A11DCF
:10071000B11D8093640090936500A0936600B09330
:10072000670060916400709165008091660090910F
:10073000670020916A0030916B0040E050E00E9419
:100740000904611571058105910511F410926D0080
:1007500060916400709165008091660090916700DF
:10076000209170003091710040E050E00E94090437
:10077000611571058105910511F410927300609166
:1007800064007091650080916600909167002091EF
:1007900076003091770040E050E00E940904611536
:1007A00071058105910511F41092790008958091E9
:1007B0006000909161000E946D010E9485018EE7AA
:1007C00093E00E94B60110926900109268001092A6
:1007D0006B0010926A0010926C0010926D001092E3
:1007E0006F0010926E0010927100109270001092C3
:1007F00072001092730010927500109274001092A3
:10080000770010927600109278001092790080E0C4
:100810000895A1E21A2EAA1BBB1BFD010DC0AA1F41
:10082000BB1FEE1FFF1FA217B307E407F50720F059
:10083000A21BB30BE40BF50B661F771F881F991FD4
:100840001A9469F760957095809590959B01AC011D
:0A085000BD01CF010895F894FFCF19
:02085A0001009B
:00000001FF
