:100000000C942A000C9447000C9447000C94470071
:100010000C9447000C9447000C9447000C94470044
:100020000C9447000C9447000C94DD030C9447009B
:100030000C9447000C9447000C9447000C94470024
:100040000C9447000C9447000C9447000C94470014
:100050000C94470011241FBECFE5D8E0DEBFCDBF12
:1000600010E0A0E6B0E0ECECFDE002C005900D92DF
:10007000A43EB107D9F711E0A4EEB0E001C01D9293
:10008000A430B107E1F70E94EF040C94E4060C944D
:100090000000382F8830C8F4662359F02BB381E074
:1000A00090E002C0880F991F3A95E2F7282B2BBBEE
:1000B00008952BB381E090E002C0880F991F3A9514
:1000C000E2F7809582238BBB089588508830F8F43E
:1000D000432F50E0662369F028B34850504081E038
:1000E00090E002C0880F991F4A95E2F7282B28BBA1
:1000F000089528B34850504081E090E002C0880F36
:10010000991F4A95E2F78095822388BB0895832F33
:1001100080518830F8F4432F50E0662369F025B30E
:100120004051504081E090E002C0880F991F4A95ED
:10013000E2F7282B25BB089525B34051504081E0BC
:1001400090E002C0880F991F4A95E2F780958223BC
:1001500085BB0895832F88518830F0F4432F50E0F9
:10016000662369F022B34851504081E090E002C01C
:10017000880F991F4A95E2F7282B22BB089522B3D6
:100180004851504081E090E002C0880F991F4A9585
:10019000E2F78095822382BB0895282F883010F4DF
:1001A00049B319C08850883028F446B330E028504D
:1001B000304011C0822F8051883028F443B330E0A2
:1001C0002051304008C0822F8851883070F440B3ED
:1001D00030E02052304081E090E002C0880F991F4B
:1001E0002A95E2F74823842F08950895382F883000
:1001F000C8F4662359F02AB381E090E002C0880F6A
:10020000991F3A95E2F7282B2ABB08952AB381E07B
:1002100090E002C0880F991F3A95E2F780958223FB
:100220008ABB089588508830F8F4432F50E0662345
:1002300069F027B34850504081E090E002C0880F39
:10024000991F4A95E2F7282B27BB089527B34850FA
:10025000504081E090E002C0880F991F4A95E2F774
:100260008095822387BB0895832F8051883090F436
:10027000432F50E06623B1F424B34051504081E055
:1002800090E002C0880F991F4A95E2F7809582237B
:1002900084BB0895832F88518830F0F4432F50E0B9
:1002A000662369F024B34051504081E090E002C0E1
:1002B000880F991F4A95E2F7282B24BB089524B391
:1002C0004051504081E090E002C0880F991F4A954C
:1002D000E2F78095822384BB0895AC01615020E051
:1002E0000CC0DA01A20FB11D9C91FA01E60FF11DBD
:1002F00080818C9390832F5F6150261790F308952F
:100300008F929F92AF92BF92CF92DF92EF92FF9225
:100310000F931F93CF93DF937B018C01EA0161154B
:1003200071058105910521F480E3888319824DC010
:1003300097FF0DC02A3059F410950095F094E09481
:10034000E11CF11C011D111DCC24C39401C0CC245F
:10035000DD24D394822E9924AA24BB24DA94C801E4
:10036000B701A50194010E94C906ED2DF0E0D394D8
:100370006A3020F0EC0FFD1F695C03C0EC0FFD1F1D
:10038000605D6083C801B701A50194010E94C906A0
:10039000C901DA017C018D019D2D9F5FE114F104FB
:1003A0000105110511F0D92ED9CFCC2031F0FE0175
:1003B000ED0DF11D8DE28083D92EFE01ED0DF11DB5
:1003C0001082CE016D2D0E946D01CE01DF91CF9183
:1003D0001F910F91FF90EF90DF90CF90BF90AF9063
:1003E0009F908F9008951F93182F81E061E00E94E5
:1003F000490082E060E00E94490083E061E00E94E1
:10040000490061E070E080E090E00E940C048BB352
:10041000912F907F8F70982B9BBB61E070E080E004
:1004200090E00E940C0483E060E00E94490061E0DB
:1004300070E080E090E00E940C0483E061E00E94A4
:10044000490061E070E080E090E00E940C048BB312
:100450001295107F8F70812B8BBB61E070E080E084
:1004600090E00E940C0483E060E00E94490061E09B
:1004700070E080E090E00E940C0483E061E00E9464
:10048000490061E070E080E090E00E940C041F9160
:1004900008956F927F928F929F92AF92BF92CF9268
:1004A000DF92EF92FF920F931F933B014C01611576
:1004B00071058105910519F480E30E94F30181E043
:1004C000A82EB12CC12CD12C20C0C601B5012AE028
:1004D00030E040E050E00E9488067B018C01C401BE
:1004E000B3010E94A7065B016C01AE0CBF1CC01ECD
:1004F000D11EC401B3012AE030E040E050E00E9488
:10050000A706C901DA013C014D016114710481049F
:100510009104D9F618C0C601B5012AE030E040E0E8
:1005200050E00E94A706862F805D0E94F301C6015D
:10053000B5012AE030E040E050E00E94A706C90182
:10054000DA015C016D0181E0A816B104C104D10497
:1005500011F71F910F91FF90EF90DF90CF90BF9018
:10056000AF909F908F907F906F9008951F93CF933F
:10057000DF93EC0110E003C00E94F3011F5FFE0156
:10058000E10FF11D80818823B9F7DF91CF911F9191
:1005900008951F93182F81E060E00E94490082E0D7
:1005A00060E00E94490083E061E00E94490062E04F
:1005B00070E080E090E00E940C048BB3912F907F5C
:1005C0008F70982B9BBB61E070E080E090E00E9410
:1005D0000C0483E060E00E94490061E070E080E08C
:1005E00090E00E940C0483E061E00E94490061E019
:1005F00070E080E090E00E940C048BB31295107FB5
:100600008F70812B8BBB61E070E080E090E00E94F6
:100610000C0483E060E00E94490061E070E080E04B
:1006200090E00E940C0483E061E00E94490061E0D8
:1006300070E080E090E00E940C041F91089581E03A
:100640000E94C90264E670E080E090E00E940C0421
:1006500082E00E94C9020895982F862F8150803130
:1006600070F4913019F0923051F405C0862F815802
:100670000E94C9020895862F81540E94C9020895DC
:100680000F931F938C01862F642F0E942C03C801A7
:100690000E94B6021F910F9108958FEF8ABB61E00F
:1006A00070E080E090E00E940C0483E30E94C902A5
:1006B00061E070E080E090E00E940C0482E30E9420
:1006C000C90261E070E080E090E00E940C0488E2E2
:1006D0000E94C90282E00E94C90261E070E080E0ED
:1006E00090E00E940C048CE00E94C90261E070E07E
:1006F00080E090E00E940C0486E00E94C90261E064
:1007000070E080E090E00E940C0481E00E94C90249
:1007100061E070E080E090E00E940C04089512BE59
:100720008130910519F0029729F402C08DE701C0CC
:100730008AEF8CBF83B7806883BF83B7886083BF2D
:1007400083B7816083BF83B7826083BF08958FB70B
:1007500080688FBF89B7826089BF0895EF92FF924A
:100760000F931F937B018C0112BE81E090E00E94E9
:100770008F0316950795F794E79420E030E040E06A
:1007800050E00AC008B601FEFDCF88B7826088BF7E
:100790002F5F3F4F4F4F5F4F2E153F0540075107CB
:1007A00088F31F910F91FF90EF90089513BE089565
:1007B0009093E5008093E40008951F920F920FB686
:1007C0000F9211242F933F934F935F936F937F93D7
:1007D0008F939F93AF93BF93EF93FF93E091E400C8
:1007E000F091E500309709F00995FF91EF91BF91E5
:1007F000AF919F918F917F916F915F914F913F91B9
:100800002F910F900FBE0F901F90189514BC8AEF78
:1008100083BD8BE085BD0895EF92FF920F931F93E8
:100820007B018C0114BC14BC8AEF83BD8BE085BDB9
:1008300020E030E040E050E00AC008B607FEFDCFFF
:1008400088B7806888BF2F5F3F4F4F4F5F4F2E158F
:100850003F054007510788F31F910F91FF90EF90DC
:10086000089584B38C6184BB85B38C6185BB84B3EC
:100870008F7184BB85B3806E85BB08958091D20053
:10088000813049F0813008F45BC08230E9F0833078
:1008900009F060C038C023B330E08091E60090E0FA
:1008A000059602C0359527958A95E2F720FD52C03E
:1008B0008091D0008F5F8093D0008A3009F04AC0C9
:1008C00082E08093D200089523B34091E60030E0A7
:1008D000842F90E0059602C0359527958A95E2F71A
:1008E00020FD0AC04F5F8091E70023E0829FC00196
:1008F0001124480F4093E90083E08093D20081E007
:100900008093D000089583B32091E60030E02B5F00
:100910003F4F41E050E002C0440F551F2A95E2F7D7
:1009200090E04823592341305105A1F48091D10032
:1009300081508093D100813069F41092D2000895E3
:100940008AE08093D10081E08093D2008EE394E02E
:100950000E94AA050895CF93DF931092E700C1E0AB
:10096000D0E035C085B38C6185BB25B3892F90E07D
:100970000296AE0102C0440F551F8A95E2F7CA01E4
:100980008095822385BB1092E60018C023B330E027
:1009900090E0059602C0359527958A95E2F720FDEF
:1009A00008C082E090E065E070E04EE354E00E9411
:1009B00080058091E6008F5F8093E6008091E600DD
:1009C000833020F38091E7008F5F8093E700909160
:1009D000E700933038F280E0DF91CF910895FF92E5
:1009E0000F931F930E944D030E9431040E941F0326
:1009F0008CE060E00E94F60080E690E00E94B60283
:100A000082E061E00E942C0371C001E00E94AB040F
:100A1000893031F4FF2011F40E941F03FF24F39466
:100A20001630A0F7013069F481E0F81679F7E12F6C
:100A3000F0E0EE0FFF1FED52FF4F808191810E9489
:100A4000B6020E94AB04813051F4E12FF0E0E35292
:100A5000FF4F8081012F0F5F8130C9F40CC08330BC
:100A600009F04CC0E12FF0E0E352FF4F8081012FED
:100A70000F5F882361F40E941F038FE790E00E94BC
:100A8000B6028091EA008F5F8093EA000AC00E945C
:100A90001F038AE890E00E94B6028CE061E00E94A9
:100AA000490068EE73E080E090E00E94AE030E948F
:100AB0001F03102F053009F0A8CF83E990E00E94B2
:100AC000B60280E06FE00E942C036091EA0070E0C3
:100AD00080E090E00E94490268E873E180E090E0E5
:100AE0000E94AE031092EA000E941F0381E790E08B
:100AF0000E94B60210E001E0FF2488CF00E086CF1C
:100B00000F931F93CF93DF938C01242F30E0E901E3
:100B1000CF5FDE4F88818823C1F4F901EE0FFF1FFC
:100B2000E20FF31FEE0FFF1FDF01A151BF4F119620
:100B30001C930E93EF50FF4F7183608314964C9378
:100B4000149715961C9281E08883DF91CF911F91B5
:100B50000F9108959C018091EF009091F000821711
:100B6000930719F480E090E013C08091F500909114
:100B7000F6008217930719F481E090E009C0809194
:100B8000FB009091FC008217930791F482E090E0C3
:100B9000FC01EE0FFF1FE80FF91FEE0FFF1FDF0133
:100BA000A151BF4F1D921C92EF50FF4F1182108236
:100BB00080E00895FF920F931F93CF93DF9310E08F
:100BC00032E0F32E01E0812F90E0EC01CC0FDD1F2D
:100BD000C80FD91FCC0FDD1FC151DF4F8D81882376
:100BE00039F4E881F981309719F0FD8209950D8378
:100BF0001F5F133040F310E0E6CF8091EB0090913F
:100C0000EC00A091ED00B091EE000196A11DB11D88
:100C10008093EB009093EC00A093ED00B093EE0076
:100C20006091EB007091EC008091ED009091EE00EE
:100C30002091F1003091F20040E050E00E94A706C0
:100C4000611571058105910511F41092F400609110
:100C5000EB007091EC008091ED009091EE002091FE
:100C6000F7003091F80040E050E00E94A7066115BF
:100C700071058105910511F41092FA006091EB0065
:100C80007091EC008091ED009091EE002091FD00BC
:100C90003091FE0040E050E00E94A706611571050A
:100CA0008105910511F41092000108958091E200F0
:100CB0009091E3000E948F030E94A7038DEF95E0BF
:100CC0000E94D8031092F0001092EF001092F200F0
:100CD0001092F1001092F3001092F4001092F600BE
:100CE0001092F5001092F8001092F7001092F9009F
:100CF0001092FA001092FC001092FB001092FE007D
:100D00001092FD001092FF001092000180E0089503
:100D1000629FD001739FF001829FE00DF11D649FDF
:100D2000E00DF11D929FF00D839FF00D749FF00D6B
:100D3000659FF00D9927729FB00DE11DF91F639F0C
:100D4000B00DE11DF91FBD01CF0111240895A1E2ED
:100D50001A2EAA1BBB1BFD010DC0AA1FBB1FEE1F35
:100D6000FF1FA217B307E407F50720F0A21BB30B80
:100D7000E40BF50B661F771F881F991F1A9469F7FC
:100D800060957095809590959B01AC01BD01CF0158
:100D9000089597FB092E05260ED057FD04D0D7DF06
:100DA0000AD0001C38F450954095309521953F4F5E
:100DB0004F4F5F4F0895F6F7909580957095619528
:0C0DC0007F4F8F4F9F4F0895F894FFCF96
:100DCC0020776C636D20746F2067616D65203A2904
:100DDC0000707265737320392073746172740043F0
:100DEC004F5252454354203A290057524F4E4720F8
:100DFC003A2800596F757220524553554C54203D7A
:100E0C002000352B35203D2031303F00342B342051
:100E1C003D2032303F00332B33203D2038383F000B
:100E2C00312B313D313F00342A35203D20313F00FC
:100E3C00010A01A200AC00B600C000C7000100000E
:040E4C0000000100A1
:00000001FF
